:100000000C943F050C94E4080C94BD080C9467050F
:100010000C9467050C9467050C9467050C946705B0
:100020000C9467050C9467050C9467050C946705A0
:100030000C9467050C9467050C9467050C94670590
:100040000C9473080C9467050C94AE070C94880705
:100050000C9467050C9467050C9467050C94670570
:100060000C940B090C946705084AD73B3BCE016EF4
:1000700084BCBFFDC12F3D6C74319ABD56833DDAFF
:100080003D00C77F11BED9E4BB4C3E916BAAAABE0E
:10009000000000803F004E414E494E495459494EA0
:1000A00046CDCCCC3D0AD7233C17B7D13877CC2BE3
:1000B000329595E6241FB14F0A000020410000C888
:1000C0004200401C4620BCBE4CCA1B0E5AAEC59D09
:1000D0007401B202FFFF0190040923A135016A02F5
:1000E000060001600800000000000000000060043D
:1000F00040000000016202000000600400400000B7
:10010000037B034CCD6C03AB0336567600680402C8
:10011000CB47A202180400058BC1010C04000000AB
:1001200000037F060CC92C97979703890326466620
:10013000006C0220000240040000000002440400A1
:1001400000000002480400000000024C040000000F
:1001500000025004000000000254040000000002ED
:10016000580400000000025C040000000002BC040F
:100170000000000001EC0400004000037F060CC9F1
:100180002C9797970402030D355D040904872D35DC
:100190003D00A3010000000001078601FE074105A4
:1001A000F120283038077E01300746019A074704BE
:1001B000F1283038076C04F12830380216020002AA
:1001C000FB00003E000B00360001000200030000AF
:1001D00000650054FFEF0000FA80000B128200015E
:1001E000000200000000000000000000000000000D
:1001F00000280000FFFF4581FFFFFA7200000000A9
:10020000000003E80000000100017FFFFFFE800105
:10021000001B0000000000000000000000000000C3
:10022000003E03304000000002CAE3093E800000A7
:1002300020000000000000004000000060000000FE
:1002400041FF000000000B2A00001655000021822B
:10025000FD872650FD800000001F00000005800083
:100260000000000000010000000200000003000088
:10027000400000000000046F0002653200005EC014
:10028000400000000000000000000000000000002E
:10029000FB8C6F5DFD5D08D9007C733B006C12CC5C
:1002A0003200139D3200D0D632000800400001F425
:1002B000FFE68079020000000000D0D60000271081
:1002C000FB000000400000000000000000000000F3
:1002D000000000010000000000000100010000001B
:1002E0000000FA36FFBC308E0005FBF0FFD95BC87A
:1002F000FFD09ABE000010A9FFF41EB200CEBBF7DB
:100300000000000100000004000200020200000CD6
:10031000FFC280000001800000CF8000400000008C
:1003200000000001000000000000060000000014B2
:1003300000000000000000000000000000000000BD
:1003400000000000000000000000000000000000AD
:10035000000000000000000000000000000000009D
:1003600000000000033F68B6793528BCC67ED16C1A
:1003700080000000400000000000B26A00000000A1
:10038000000000000000000000003FF0000000300E
:10039000000000000000000000000000000000005D
:1003A000000000000000000000000000000000004D
:1003B0000000254D002F706D000005AE000C02D02E
:1003C0000000000000650054FFEF00000000000086
:1003D000000001000044000000000C0000000100CB
:1003E000000000000065000000540000FFEF000066
:1003F00000000000000000000000000000000000FD
:1004000040000000000000000000000000000000AC
:10041000400000000000000000000000000000009C
:1004200000000001000000020000000000000000C9
:1004300000000000000000000000000000000000BC
:1004400000000000000000000000000000000000AC
:10045000001B000000000000000000000000000081
:10046000000000000000000000000000000000008C
:10047000000000000000000000000000400000003C
:10048000001B000000000000000000000000000051
:10049000000000000000000000000000000000005C
:1004A000000000000000000000000000000000004C
:1004B000000000000000000000000000000000003C
:1004C000D8DCBAA2F1DEB2B8B4A88191F74A907F25
:1004D000916AF3F9DBA8F9B0BAA080F2CE81F3C239
:1004E000F1C1F2C3F3CCA2B280F1C6D880BAA7DFC3
:1004F000DFDFF2A7C3CBC5B6F087A2942448703CD7
:1005000095406834589B78A2F183922D557DD8B1DF
:10051000B4B8A1D09180F270F370F27C80A8F101A0
:10052000B09887D943D886C988BAA1F20EB8978007
:10053000F1A9DFDFDFAADFDFDFF2AAC5CDC7A90C93
:10054000C92C97979797F1A989264666B0B4BA80C7
:10055000ACDEF2CAF1B28C02A9B69800890E161E62
:10056000B8A9B4992C547CB08AA896365676F1B9BD
:10057000AFB4B083C0B8A89711B18F98B9AFF024C9
:100580000844106418F1A329557DAF83B593AFF0EB
:10059000002850F1A3869F61A6DADEDFD9FAA38690
:1005A00096DB31A6D9F8DFBAA68FC2C5C7B28CC117
:1005B000B8A2DFDFDFA3DFDFDFD8D8F1B8A8B286CB
:1005C000B4980D355DB8AA98B0872D353DB2B6BA4E
:1005D000AF8C96198F9FA70E161EB49AB8AA872CB7
:1005E000547CB9A3DEDFDFA3B180F2C4CDC9F1B87A
:1005F000A9B499830D355D89B9A32D557DB593A314
:100600000E161EA92C547CB8B4B0F19783A811849F
:10061000A50998A383F0DA240844106418D8F1A53A
:1006200029557DA58595021A2E3A565A4048F9F368
:10063000A3D9F8F098832408441064189782A8F18D
:1006400011F098A2240844106418DAF3DED883A5C8
:100650009401D9A302F1A2C3C5C7D8F18492A24DD7
:10066000DA2AD84869D92AD86855DA32D85071D9E7
:1006700032D8705DDA3AD85879D93AD87893A34D00
:10068000DA2AD84869D92AD86855DA32D85071D9C7
:1006900032D8705DDA3AD85879D93AD878A88A9A97
:1006A000F02850789EF38818F19F1D98A8D908D893
:1006B000C89F129EF315A8DA1210D8F1AFC8978719
:1006C00034B5B994A421F3D922D8F22DF3D92AD87C
:1006D000F235F3D932D881A4606061D961D86C68F1
:1006E00069D969D8747071D971D8B1A384193D5D85
:1006F000A3831A3E5E931030811011B8B0AF8F946F
:10070000F2DA3ED8B49AA88729DAF8D8879A35DA87
:10071000F8D8879A3DDAF8D8B1B9A49885022E5650
:10072000A581000C14A397B08AF12DD928D84DD9F2
:1007300048D86DD968D8B1840DDA0ED8A32983DAE8
:100740002C0ED8A3844983DA2C4C0ED8B8B0A88AD2
:100750009AF520AADADFD8A840AAD0DADED8A860B5
:10076000AADAD0DFD8F19786A8319B069907AB9714
:1007700028889BF00C201440B8B0B4A88C9CF004DE
:100780002851791D301438B282ABD0982C50507853
:10079000789BF11AB0F08A9CA82951798B2951795C
:1007A0008A2470598B2058718A4469388B39406883
:1007B0008A6448318B304960A588200971584468A3
:1007C000113964493019F1AC002C547CF08CA80428
:1007D000285078F1889726A85998AC8C022646664E
:1007E000F0899CA8295179247059446938644831AA
:1007F000A98809205970AB11384069A8193148609F
:100800008CA83C415C207C00F187981986A86E7604
:100810007EA999882D557D9EB9A38A228A6E8A5613
:100820008A5E9FB183062646660E2E4E6E9DB8AD3B
:10083000002C547CF2B18CB499B9A32D557D8191D3
:10084000AC38AD3AB58391AC2DD928D84DD948D81C
:100850006DD968D88C9DAE29D904AED851D904AED3
:10086000D879D904D881F39DAD008DAE1981ADD969
:1008700001D8F2AEDA26D88E912983A7D9ADADADD5
:10088000ADF32AD8D8F1B0AC89913E5E76F3AC2EA8
:100890002EF1B18C5A9CAC2C2828289CAC3018A87E
:1008A000988128343C9724A728343C9C24F2B089B2
:1008B000AC912C4C6C8A9B2DD9D8D851D9D8D879E9
:1008C000D9D8D8F19E88A331DAD8D8912DD928D893
:1008D0004DD948D86DD968D8B18393353D8025DA94
:1008E000D8D88569DAD8D8B49381A328343CF3AB3F
:1008F0008BF8A391B609B4D9ABDEFAB0879CB9A343
:10090000DDF1A3A3A3A395F1A3A3A39DF1A3A3A3A7
:10091000A3F2A3B49080F2A3A3A3A3A3A3A3A3A32E
:10092000A3B2A3A3A3A3A3A3B087B599F1A3A3A341
:1009300098F1A3A3A3A397A3A3A3A3F39BA3A3DCCF
:10094000B9A7F1262626D8D8FF2900444D502049C2
:100950006E697469616C697A6174696F6E20666131
:10096000696C65642028636F64652000444D5020E5
:100970007265616479212057616974696E672066C8
:100980006F7220666972737420696E746572727515
:1009900070742E2E2E00456E61626C696E67206940
:1009A0006E746572727570742064657465637469C1
:1009B0006F6E202841726475696E6F20657874656A
:1009C000726E616C20696E7465727275707420301D
:1009D000292E2E2E00456E61626C696E6720444D93
:1009E000502E2E2E004D50553630353020636F6E10
:1009F0006E656374696F6E206661696C6564004D35
:100A000050553630353020636F6E6E656374696F94
:100A10006E207375636365737366756C0046494633
:100A20004F206F766572666C6F77210000000008BA
:100A300000020100000304070000000000000000A5
:100A400000000000250028002B000000000024000A
:100A500027002A000404040404040404020202021D
:100A60000202030303030303010204081020408071
:100A70000102040810200102040810209C1C11240B
:100A80001FBECFEFD8E0DEBFCDBF23E0A8ECB1E0C2
:100A900001C01D92A13BB207E1F711E0A0E0B1E077
:100AA000E0E8F8E402C005900D92A83CB107D9F740
:100AB00015E0CFE3D5E004C02197FE010E94262275
:100AC000CE33D107C9F70E9436100C943E240C9403
:100AD0000000CF92DF92EF92FF920F931F93CF937C
:100AE000DF936C017A018B01C0E0D0E0CE15DF0509
:100AF00081F0D8016D918D01D601ED91FC910190AD
:100B0000F081E02DC6010995892B11F02196EECFD9
:100B10007E01C701DF91CF911F910F91FF90EF9060
:100B2000DF90CF900895FC01538D448D252F30E048
:100B3000842F90E0821B930B541710F0CF960895EA
:100B400001970895FC01918D828D981761F0828D37
:100B5000DF01A80FB11D5D968C91928D9F5F9F73F1
:100B6000928F90E008958FEF9FEF0895FC01918D93
:100B7000828D981731F0828DE80FF11D858D90E000
:100B800008958FEF9FEF0895FC01918D228D892F9D
:100B900090E0805C9F4F821B91098F739927089585
:100BA00084EE92E00E94C40521E0892B09F420E044
:100BB000822F0895FC01848DDF01A80FB11DA35A77
:100BC000BF4F2C91848D90E001968F739927848F6D
:100BD000A689B7892C93A089B1898C918370806490
:100BE0008C93938D848D981306C00288F389E02D31
:100BF00080818F7D80830895EF92FF920F931F93E2
:100C0000CF93DF93EC0181E0888F9B8D8C8D9813BF
:100C100005C0E889F989808185FD26C0F62E0B8DF7
:100C200010E00F5F1F4F0F731127E02E8C8DE8121D
:100C30000CC00FB607FCFACFE889F989808185FFDF
:100C4000F5CFCE010E94DA05F1CF8B8DFE01E80FC2
:100C5000F11DE35AFF4FF0829FB7F8940B8FEA899A
:100C6000FB89808180620AC09FB7F894EE89FF8972
:100C70006083E889F98980818370806480839FBF65
:100C800081E090E0DF91CF911F910F91FF90EF9065
:100C90000895CF93DF93EC01888D8823C9F0EA890A
:100CA000FB89808185FD05C0A889B9898C9186FD65
:100CB0000FC00FB607FCF5CF808185FFF2CFA88962
:100CC000B9898C9185FFEDCFCE010E94DA05E7CF7F
:100CD000DF91CF91089580E090E0892B29F00E9468
:100CE000D00581110C94000008953FB7F8948091CD
:100CF000950290919602A0919702B091980226B524
:100D0000A89B05C02F3F19F00196A11DB11D3FBF43
:100D1000BA2FA92F982F8827820F911DA11DB11DD1
:100D2000BC01CD0142E0660F771F881F991F4A95CD
:100D3000D1F70895089585ED8093BC008091BC00A3
:100D400084FDFCCF1092BF02089540916D02262FC2
:100D500030E0240F311D21323105DCF42091BF0237
:100D60002430C9F4FC0180E090E0861758F43091FB
:100D70006D022191DC01A35BBD4FA30FB11D2C932C
:100D80000196F3CF80916D02680F60936D0280E051
:100D9000089581E0089582E00895089508950895E2
:100DA000E091CD018091CC01E81730F4F0E0E35DF3
:100DB000FD4F808190E008958FEF9FEF089590910F
:100DC000CD018091CC01981750F4E92FF0E0E35D5C
:100DD000FD4F208130E09F5F9093CD0102C02FEF47
:100DE0003FEFC90108958091CC0190E02091CD01A1
:100DF000821B91090895CF92DF92EF92FF920F9399
:100E00001F93CF93DF937C01CB018A012091C00215
:100E1000222389F0EB016B01C40ED51ECC15DD0534
:100E200069F06991D701ED91FC910190F081E02D7D
:100E3000C7010995F3CF642F0E94A506C801DF9171
:100E4000CF911F910F91FF90EF90DF90CF90089579
:100E5000CF93DF931F92CDB7DEB769832091C00295
:100E60002223D1F02091E302203240F021E030E053
:100E7000FC013383228380E090E015C08091C102A1
:100E8000E82FF0E0EE53FD4F998190838F5F8093C0
:100E9000C1028093E30205C061E0CE0101960E9489
:100EA000A50681E090E00F90DF91CF91089508951D
:100EB00080E090E0089581E08093CE0108950E9443
:100EC00013240F931F93CF93DF93EC0188819981B3
:100ED000009729F02A813B812617370788F48B0178
:100EE0006F5F7F4F0E944D23009761F09983888345
:100EF0001B830A832C813D81232B11F4FC0110827A
:100F000081E001C080E0DF91CF911F910F910895A2
:100F10001F920F920FB60F9211242F933F934F936E
:100F20005F936F937F938F939F93AF93BF93EF9351
:100F3000FF9384EE92E00E94DA05FF91EF91BF915A
:100F4000AF919F918F917F916F915F914F913F9161
:100F50002F910F900FBE0F901F9018951F920F9218
:100F60000FB60F9211242F938F939F93EF93FF93BC
:100F7000E091F402F091F5028081E091FA02F091A3
:100F8000FB0282FD12C090818091FD028F5F8F7302
:100F90002091FE02821751F0E091FD02F0E0EC5149
:100FA000FD4F958F8093FD0201C08081FF91EF91ED
:100FB0009F918F912F910F900FBE0F901F901895BA
:100FC00090E0FC01E45DF54F2491FC01E859F54FF8
:100FD0003491FC01EC5AF54FE491EE2309F43CC046
:100FE000222339F1233091F038F42130A9F0223056
:100FF00001F584B58F7D12C0273091F02830A1F023
:101000002430B9F4809180008F7D03C080918000EE
:101010008F77809380000DC084B58F7784BD09C021
:101020008091B0008F7703C08091B0008F7D809356
:10103000B000F0E0EE0FFF1FE05CF54FA591B4911A
:101040009FB7F894611104C08C913095382302C089
:10105000EC913E2B3C939FBF08958F929F92AF924D
:10106000BF92CF92DF92EF92FF926B017C010E94C0
:1010700075064B015C01C114D104E104F104F1F0E7
:101080000E947506DC01CB0188199909AA09BB09E0
:10109000883E9340A105B10570F321E0C21AD10842
:1010A000E108F10888EE880E83E0981EA11CB11CAF
:1010B000C114D104E104F10419F7DDCFFF90EF90E2
:1010C000DF90CF90BF90AF909F908F9008952FB7F3
:1010D000F8946091910270919202809193029091A4
:1010E00094022FBF08951F920F920FB60F921124F2
:1010F0002F933F938F939F93AF93BF9380919102D0
:1011000090919202A0919302B0919402309190023A
:1011100023E0230F2D3720F40196A11DB11D05C03A
:1011200026E8230F0296A11DB11D20939002809303
:10113000910290939202A0939302B09394028091B3
:10114000950290919602A0919702B0919802019613
:10115000A11DB11D8093950290939602A0939702D2
:10116000B0939802BF91AF919F918F913F912F9132
:101170000F900FBE0F901F9018951F920F920FB6F1
:101180000F9211242F933F934F935F936F937F930D
:101190008F939F93AF93BF93EF93FF93E0910201DF
:1011A000F09103010995FF91EF91BF91AF919F914C
:1011B0008F917F916F915F914F913F912F910F9000
:1011C0000FBE0F901F9018951F920F920FB60F929F
:1011D00011242F933F934F935F936F937F938F933C
:1011E0009F93AF93BF93EF93FF93E0910001F09132
:1011F00001010995FF91EF91BF91AF919F918F915F
:101200007F916F915F914F913F912F910F900FBE02
:101210000F901F9018951F920F920FB60F921124E6
:101220002F933F934F935F936F937F938F939F93EE
:10123000AF93BF93EF93FF938091B900887F80367F
:1012400009F49CC068F5883209F45BC090F48031E1
:1012500009F454C038F4882309F4F6C0883009F43E
:101260004DC0F6C0883109F44CC0803209F45DC02D
:10127000EFC0803409F468C048F4803309F455C0E5
:10128000883309F0E5C08093BD02D8C0803509F4E9
:101290004FC0883509F45DC0883409F0D9C0D6C084
:1012A000883909F4C7C0A8F4883709F467C038F44E
:1012B000883609F463C0803709F460C0C9C0883833
:1012C00009F4B8C0803909F45FC0803809F0C0C0A3
:1012D0005BC0803B09F486C038F4803A09F466C0EC
:1012E000883A09F47FC0B4C0803C09F4A7C0883CA8
:1012F00009F4A4C0883B09F48AC0AAC080919A026C
:1013000010C09091BC028091BB02981770F5E091DB
:10131000BC0281E08E0F8093BC02F0E0E556FD4FE9
:1013200080818093BB0085EC86C08093BD028EC017
:10133000E091BC0281E08E0F8093BC028091BB00E3
:10134000F0E0E556FD4F80839091BC028091BB0296
:101350006EC0E091BC0281E08E0F8093BC02809150
:10136000BB00F0E0E556FD4F80838091BE02811105
:101370006DC081E08093990284EA61C083E080932C
:10138000BF0210928F02CFCF80918F02803208F07F
:1013900051C0E0918F0281E08E0F80938F02809187
:1013A000BB00F0E0E159FD4F8083BDCF85EC809319
:1013B000BC001092BF0280918F02803230F4E09125
:1013C0008F02F0E0E159FD4F108260918F0270E0D2
:1013D000E091C801F091C9018FE692E00995109261
:1013E0008F0236C084E08093BF0210926E0210928A
:1013F0006D02E091CA01F091CB01099580916D02D7
:10140000811105C081E080936D0210924D02E09140
:101410006E0281E08E0F80936E02F0E0E35BFD4F81
:1014200080818093BB0090916E0280916D0298172D
:1014300008F479CF85E88093BC000AC085EC8093DE
:10144000BC001092BF0204C01092BD020E949B0615
:10145000FF91EF91BF91AF919F918F917F916F918C
:101460005F914F913F912F910F900FBE0F901F9062
:101470001895FF920F931F93CF93DF93142FF22EA3
:10148000032F91E09093C0028093E2021092C10278
:101490001092E30281E893E00E942807CF2DD02F1D
:1014A000CE01810F911D8C01C017D10731F06991D8
:1014B00081E893E00E942807F7CF81E00E94FD0CAD
:1014C00091E0811190E0892FDF91CF911F910F91D1
:1014D000FF900895CF93DF931F92CDB7DEB7498376
:1014E0009E012F5F3F4F41E00E94390A0F90DF912C
:1014F000CF9108952F923F924F925F926F927F9279
:101500008F929F92AF92BF92CF92DF92EF92FF9213
:101510000F931F93CF93DF93CDB7DEB728970FB606
:10152000F894DEBF0FBECDBFD82EC62E4F83490123
:101530000E9467082B013C012D2C220CE12C1886FF
:10154000FF24F3942F81A22EB12C33243A94C801A6
:10155000A0E0B0E08B839C83AD83BE839F81E916BE
:1015600008F084C0F092C002D092E2021092C10250
:101570001092E3026C2D81E893E00E94280781E03D
:101580000E94FD0CF092C002D092E2021092C102C1
:101590001092E3028091BF028111FCCFC5018E1928
:1015A00091098132910514F080E290E0813208F0D7
:1015B00080E2F092BF02F092BE023092BD02109221
:1015C000BC029FEF980F9093BB02F0929A02909109
:1015D0009A02922990939A0290919902913071F413
:1015E0001092990290919A029093BB009091BC0046
:1015F00093FDF8CFA5ECA093BC0003C0B5EEB0936B
:10160000BC009091BF029130E1F39091BC02981719
:1016100010F48091BC02EBE9F2E0ADE2B2E090E0C0
:10162000981721F021912D939F5FFACF1092CD0151
:101630009093CC019091CC018091CD01981709F441
:1016400047C00115110589F10E946708DC01CB0133
:1016500084199509A609B7092B813C814D815E81CA
:1016600082179307A407B50700F132C001151105D1
:10167000A9F10E946708DC01CB0184199509A6092C
:10168000B70920E030E080179107A207B30730F1D7
:101690004F81242F30E05885852F550F990B8217E5
:1016A0009307E4F48FEF888719C0D401E885AE0F63
:1016B000B11DE7FDBA95BA83A98381E893E00E9442
:1016C000DF06A981BA818C93B885BF5FB887B2CF96
:1016D0008F81813208F080E2E80E40CF888528961D
:1016E0000FB6F894DEBF0FBECDBFDF91CF911F9133
:1016F0000F91FF90EF90DF90CF90BF90AF909F90B1
:101700008F907F906F905F904F903F902F900895B3
:10171000BF92CF92DF92EF92FF920F931F93CF93DE
:10172000DF931F92CDB7DEB7F82EE62EC42EB22E71
:10173000D02E08EE13E09E012F5F3F4F41E00E9444
:101740007A0A882339F12C2D30E02B1931092F5FCB
:101750003F4F81E090E002C0880F991FBA94E2F7F2
:101760000197022E01C0880F0A94EAF74D2D50E030
:10177000BA0102C0660F771F2A95E2F7482F4095FD
:10178000998149238623482B49836E2D8F2D0E94F2
:101790006A0A01C080E00F90DF91CF911F910F91F5
:1017A000FF90EF90DF90CF90BF900895CF92DF929F
:1017B000EF92FF920F931F93CF93DF931F92CDB7BA
:1017C000DEB7F82EE62ED42EC22E08EE13E09E01D0
:1017D0002F5F3F4F41E00E947A0A898141E050E04B
:1017E00001C0440FDA94EAF7CC2011F0482B02C074
:1017F0004095482349836E2D8F2D0E946A0A0F90D1
:10180000DF91CF911F910F91FF90EF90DF90CF90DC
:1018100008950F931F939B0108EE13E064E7FC010A
:1018200084810E947A0A1F910F9108950F931F934C
:10183000CF93DF93EC019C012B5F3F4F08EE13E049
:1018400042E062E78C810E947A0A8D819E8198270E
:1018500089279827DF91CF911F910F91089521E05B
:1018600042E06AE6FC0184810C94D60B0F931F932F
:10187000CF93DF93EC019C012B5F3F4F08EE13E009
:1018800041E06AE38C810E947A0A8D81DF91CF91D9
:101890001F910F910895CF93DF93EC011C8E1D8E45
:1018A0001E8E1F8E18A219A21AA21BA2188E198EA4
:1018B0001A8E1B8E0E9467080E94791E68AB79AB56
:1018C0008AAB9BAB18A619A61AA61BA6DF91CF91CF
:1018D0000895CF93DF93EC0160E089810E94E007D7
:1018E00061E08A81DF91CF910C94E0070F931F9301
:1018F000CF93DF93D62FFC016383062F10E0C081C6
:101900008C2F0E94F90E0115110509F447C00F3FF5
:10191000110509F445C0EC2FF0E0E45DF54FE491CA
:10192000E330F9F048F4E130B9F0E230A1F584B5E4
:10193000806284BDD8BD3CC0E730E9F0E83019F1E1
:10194000E43049F58091800080628093800010939C
:101950008B0000938A002CC084B5806884BDD7BDFD
:1019600027C0809180008068809380001093890058
:10197000009388001DC08091B00080688093B00003
:10198000D093B30015C08091B00080628093B00006
:10199000D093B4000DC00038110514F460E001C00C
:1019A00061E08C2FDF91CF911F910F910C94E00794
:1019B000DF91CF911F910F9108950F931F93CF93B4
:1019C000DF93EC01862F042F122F688349832A832B
:1019D0000E94F90E802F0E94F90E812F0E94F90EAD
:1019E0001D821C82CE010E94690C60E0CE01DF9155
:1019F000CF911F910F910C94760C282F3091E30218
:101A0000313208F04AC08091BF028111FCCF909121
:101A1000E20242E04093BF022093BE022FEF2093E8
:101A2000BD021092BC023093BB02E2ECF2E0ABE9E3
:101A3000B2E020E0321721F041914D932F5FFACFB1
:101A400010929A0220919A02990F922B90939A02E7
:101A500090919902913061F41092990290919A02BA
:101A60009093BB009091BC0093FDF8CF95EC01C022
:101A700095EE9093BC009091BF029230E1F390916B
:101A8000BD029F3F79F08091BD02803241F080918C
:101A9000BD02803331F084E005C081E003C082E004
:101AA00001C083E01092C1021092E3021092C002C2
:101AB0000895009769F0FC0101900020E9F7319743
:101AC000AF01481B590BBC0184EE92E00C946905F0
:101AD00080E090E008950F931F93CF93DF938C01E4
:101AE000C0E0D0E0F801EC0FFD1F6491662341F0E7
:101AF00084EE92E00E94FC05892B11F02196F2CF32
:101B0000CE01DF91CF911F910F910895CF93DF9375
:101B10000E946B0DEC0188EB91E00E94590D8C0F37
:101B20009D1FDF91CF9108958F929F92AF92BF92A8
:101B30000F931F93CF93DF93CDB7DEB7A1970FB667
:101B4000F894DEBF0FBECDBF19A2423008F44AE0C0
:101B50008E010F5D1F4F842E912CA12CB12CA5015D
:101B600094010E940422E62FB901CA010150110913
:101B7000EA3014F4E05D01C0E95CD801EC93232B5A
:101B8000242B252B61F7C8010E94590DA1960FB691
:101B9000F894DEBF0FBECDBFDF91CF911F910F91A3
:101BA000BF90AF909F908F900895CF93DF93EA01FD
:101BB00091E09093C0028093E2021092C1021092D1
:101BC000E30281E893E00E942807698181E893E0BD
:101BD0000E942807688181E893E00E94280781E03D
:101BE0000E94FD0C91E0811190E0892FDF91CF914F
:101BF0000895462F6EE6FC0184810C946A0A2F92A8
:101C00003F924F925F926F927F928F929F92AF928C
:101C1000BF92CF92DF92EF92FF920F931F93CF93D9
:101C2000DF9300D000D0CDB7DEB79C838B832B0130
:101C30003A012983302EEA82422F4F716DE6FC0172
:101C400084810E946A0A602F8B819C810E94F90D19
:101C500080E190E00E942C225C01EA80EE2029F0D5
:101C600080E190E00E942C226C01E12CF12CE61422
:101C7000F70408F078C0C70140966816790618F492
:101C8000262C2E1802C080E1282E822D90E020E024
:101C900031E0231931092817390714F4232C219432
:101CA000FA81FF2371F0D60180E090E0821560F4A4
:101CB000F701E80FF91FE40DF51DE491ED9301968E
:101CC000F5CF6201CE0CDF1C9601422D6FE6EB8151
:101CD000FC8184810E94390A822C912CA114B104C8
:101CE00041F149814F716DE6EB81FC8184810E9455
:101CF0006A0A632D8B819C810E94F90D08EE13E026
:101D00009501422D6FE6EB81FC8184810E947A0A65
:101D1000A401B501C6010E941824892B51F0C50108
:101D20000E94C422FA81FF2341F1C6010E94C4220D
:101D300024C0E80CF91C320CE614F70408F097CF25
:101D4000311003C089818F5F898349814F716DE6AE
:101D5000EB81FC8184810E946A0A632D8B819C81C6
:101D60000E94F90D84CFC5010E94C422FA81FF238D
:101D700031F0C6010E94C42202C080E001C081E0AF
:101D80000F900F900F900F90DF91CF911F910F91B7
:101D9000FF90EF90DF90CF90BF90AF909F908F908B
:101DA0007F906F905F904F903F902F900895EF92AB
:101DB000FF920F931F93CF93DF931F92CDB7DEB7A0
:101DC0007A0189019E012F5F3F4F41E00E947A0A0C
:101DD000882339F029812E7730E035952795F70152
:101DE00020830F90DF91CF911F910F91FF90EF9083
:101DF000089590E0FC01E859F54F2491FC01EC5A5C
:101E0000F54F8491882399F090E0880F991FFC0189
:101E1000E65BF54FA591B491FC01E05CF54F85912F
:101E200094918FB7F894EC91E22BEC938FBF0895C7
:101E3000CF93DF930E94590DEC0188EB91E00E9453
:101E4000590D8C0F9D1FDF91CF910895FC012481C6
:101E50003581232B31F421E061157105A1F0FB01DF
:101E600008C0FC01808191816115710531F421E088
:101E7000FC018081882339F005C00E942E2421E0D6
:101E8000892B09F020E0822F08954F925F926F9284
:101E90007F928F929F92AF92BF92CF92DF92EF92FA
:101EA000FF926B017C019B01AC010E94EA21882317
:101EB00019F08BEB91E01AC046015701E894B7F88E
:101EC0002FEF3FEF4FE75FE7C501B4010E94EA2122
:101ED000811110C02FEF3FEF4FE75FE7C501B4015D
:101EE0000E94741E181634F48FEB91E00E94590D75
:101EF0007C0183C02FEF3FEF4FE75FE4C701B601DE
:101F00000E94932118161CF483EC91E0EFCF2FEF81
:101F10003FEF4FE75FECC701B6010E94741E87FDDB
:101F2000F3CF20E030E0A901C701B6010E94741E82
:101F300087FF0BC06DE284EE92E00E94FC055C011D
:101F4000F7FAF094F7F8F09402C0A12CB12C2AE033
:101F500037ED43EA5BE3C701B6010E94ED1F2B0199
:101F60003C010E943D216B017C010E94791E9B0176
:101F7000AC01C301B2010E94EC1F2B013C014AE0FD
:101F8000C701B6010E94940D7C01EA0CFB1C6EE2B5
:101F900084EE92E00E94FC05E80EF91E20E030E09D
:101FA00040E251E4C301B2010E94DA1E2B013C0160
:101FB0000E943D214B01A12CB12C4AE0C501B40186
:101FC0000E94940DE80EF91EC501B4010E94791E0D
:101FD0009B01AC01C301B2010E94EC1F20E030E084
:101FE00040E251E40E94DA1E0E943D2180E090E030
:101FF0004AE00E94940DE80EF91E88EB91E00E94E1
:10200000590D8E0D9F1DFF90EF90DF90CF90BF90E8
:10201000AF909F908F907F906F905F904F900895BA
:102020000F931F93CF93DF93EC018B010E94610705
:102030002881398181110DC02115310519F0C9019F
:102040000E94C422198218821D821C821B821A825D
:1020500007C01D830C836AEB71E0C9010E9437241D
:10206000CE01DF91CF911F910F910895CF93DF9310
:10207000CDB7DEB7C25BD1090FB6F894DEBF0FBE95
:10208000CDBF789484B5826084BD84B5816084BD01
:1020900085B5826085BD85B5816085BD80916E0006
:1020A000816080936E001092810080918100826037
:1020B0008093810080918100816080938100809174
:1020C00080008160809380008091B1008460809363
:1020D000B1008091B00081608093B00080917A005F
:1020E000846080937A0080917A00826080937A0085
:1020F00080917A00816080937A0080917A00806874
:1021000080937A001092C1008DE00E94F90EE09158
:10211000F402F091F50282E08083E091F002F09108
:10212000F1021082E091F202F091F30280E18083EB
:102130001092FC02E091F802F091F90286E08083AF
:10214000E091F602F091F702808180618083E09156
:10215000F602F091F702808188608083E091F602B8
:10216000F091F702808180688083E091F602F0911F
:10217000F70280818F7D808386E090E00E942C2290
:102180008C0124E045E069E00E94DD0C1093D3014E
:102190000093D20186E090E00E942C228C0126E080
:1021A00047E06AE00E94DD0C1093D1010093D0015A
:1021B00083E190E00E942C226C0188E6D6011496FF
:1021C0008C931092CD011092CC011092C10210920A
:1021D000E3021092BF0281E08093BE021092990246
:1021E00061E082E10E94E00761E083E10E94E00794
:1021F0008091B9008E7F8093B9008091B9008D7F66
:102200008093B90088E48093B80085E48093BC0093
:102210008DEC96E09093CB018093CA018EEC96E012
:102220009093C9018093C80188E18093B80001E0D0
:1022300023E042E06BE6F60184810E94880B00E017
:1022400022E044E06BE1D60114968C910E94880B49
:1022500022E044E06CE1F60184810E94880B20E0DA
:1022600046E06BE6D60114968C910E94D60B76015F
:10227000B5E0EB0EF11C28EE33E0A70165E7F601AF
:1022800084810E94D70ED60115968C91843319F45F
:102290008FEF99E002C085EE99E00E94860D21E063
:1022A00047E06BE6F60184810E94D60B6EE170E098
:1022B00080E090E00E942D0820E046E06BE6D60129
:1022C00014968C910E94D60B40E76DE6F60184814E
:1022D0000E946A0A66E0C6010E94F90D08EE13E04A
:1022E000970141E06FE6D60114968C910E947A0A1C
:1022F00040E06DE6F60184810E946A0A9E012F5F2C
:102300003F4F41E060E0D60114968C910E947A0A1A
:1023100089818170F601858328EE33E0A70160E0B2
:1023200084810E94D70ED60115964C90159728EE01
:1023300033E0A70161E014968C910E94D70EF6015C
:10234000558028EE33E0A70162E084810E94D70E19
:10235000D60115966C9015974FE765E214968C910F
:102360000E946A0A20E045E06AE6F60184810E9444
:10237000D60B48E665E2D60114968C910E946A0A53
:1023800021E041E06AE6F60184810E94D60B64E117
:1023900070E080E090E00E942D08EE24E39400E0DD
:1023A00020E049E857E060EC71E0C6010E94FF0DB3
:1023B000882309F407C388E090E00E942C22782E3D
:1023C000F92E00E010E0F801E050FF4F3490F801E2
:1023D000EF5FFE4F24904801F3E08F0E911CF8014F
:1023E000EE5FFE4FE491EE2309F491C0AE2EB12CC6
:1023F000E33038F0B501872D9F2D0E944D23782EB4
:10240000F92EA72DBF2D80E090E08A159B0548F49A
:10241000F401E80FF91FE050FF4FE491ED930196AE
:10242000F4CFE12C022D232DA501672D7F2DC601B0
:102430000E94FF0D84010A0D1B1D882309F477C03B
:10244000003C110508F4BFCF872D9F2D0E94C422A8
:1024500003E023E042E06BE6F60184810E94880BF2
:1024600042E168E3D60114968C910E946A0A44E026
:1024700069E1F60184810E946A0A01E023E045E0F7
:102480006AE1D60114968C910E94880B03E023E048
:1024900042E06AE1F60184810E94880B22E044E078
:1024A0006BE1D60114968C910E94880B43E060E7A3
:1024B000F60184810E946A0A40E061E7D601149621
:1024C0008C910E946A0A20E040E060E0F60184817D
:1024D0000E94D60B042D26E046E060E0D60114965B
:1024E0008C910E94880B052D26E046E061E0F60104
:1024F00084810E94880B062D26E046E062E0D6012A
:1025000014968C910E94880BA12CB12C16C00C5FE4
:102510001F4FF401E050FF4FE491E13041F442E3FA
:1025200068E3D60114968C910E946A0A89CF872DA0
:102530009F2D0E94C42212E046C2F501EF52FF4FC8
:10254000E491A1E8B0E0AC0FBD1FAA0DB11DEC9362
:1025500081E08A0DBFEFAB1ABB0AE3E0EA1568F72A
:10256000CD57DF4F4881C358D04050E09A012E5FCD
:102570003F4F90E02817390704F7E12CCE57DF4F83
:102580000881C258D040CF57DF4F2881C158D04072
:1025900061E870E06C0F7D1F6D5F7F4FC6010E9488
:1025A000FF0D80E0F501EF52FF4FE491A1E8B0E0AC
:1025B000AC0FBD1FA80FB11DEC938F5FFFEFAF1ADB
:1025C000BF0A843078F3CD57DF4F4881C358D040DD
:1025D00050E0BA016E5F7F4F282F30E0621773071B
:1025E0000CF7E12CCE57DF4F0881C258D040CF57AF
:1025F000DF4F2881C158D04061E870E06C0F7D1F2B
:102600006D5F7F4FC6010E94FF0DC6010E942F0C17
:10261000C6010E94160C482FBE016F5F7F4FC60196
:102620000E94090C42E06FE1D60114968C910E9441
:102630006A0A4CE961E2F60184810E946A0A40E577
:1026400060E2D60114968C910E946A0A40E062E230
:10265000F60184810E946A0AC6010E942F0C21E0C3
:1026600046E06AE6D60114968C910E94D60B21E0D2
:1026700047E06AE6F60184810E94D60B21E043E040
:102680006AE6D60114968C910E94D60B80E0F50183
:10269000EF52FF4FE491A1E8B0E0AC0FBD1FA80FCF
:1026A000B11DEC938F5FBFEFAB1ABB0A843078F398
:1026B000CD57DF4F4881C358D04050E0BA016E5F1C
:1026C0007F4F282F30E0621773070CF7E12CCE57AD
:1026D000DF4F0881C258D040CF57DF4F2881C15803
:1026E000D04061E870E06C0F7D1F6D5F7F4FC601C9
:1026F0000E94FF0D80E0F501EF52FF4FE491A1E849
:10270000B0E0AC0FBD1FA80FB11DEC938F5FEFEFD2
:10271000AE1ABE0A843078F3CD57DF4F4881C358D4
:10272000D04050E0BA016E5F7F4F282F30E0621733
:1027300073070CF7E12CCE57DF4F0881C258D04009
:10274000CF57DF4F2881C158D04061E870E06C0F4F
:102750007D1F6D5F7F4FC6010E94FF0D80E0F50178
:10276000EF52FF4FE491A1E8B0E0AC0FBD1FA80FFE
:10277000B11DEC938F5FFFEFAF1ABF0A843078F37F
:10278000CD57DF4F4881C358D04050E0BA016E5F4B
:102790007F4F282F30E0621773070CF7E12CCE57DC
:1027A000DF4F0881C258D040CF57DF4F2881C15832
:1027B000D04061E870E06C0F7D1F6D5F7F4FC601F8
:1027C0000E94FF0DC6010E94160C83309105D0F3C4
:1027D000482FBE016F5F7F4FC6010E94090CC601E2
:1027E0000E94360C80E0F501EF52FF4FE491A1E822
:1027F000B0E0AC0FBD1FA80FB11DEC938F5F9FEF32
:10280000A91AB90A843078F3CD57DF4F2881C3580D
:10281000D040C156DF4F2883CF59D040822E912C13
:10282000A4014E5F5F4F282F30E042175307DCF6BC
:10283000CE57DF4F3880C258D040CF57DF4FA881E6
:10284000C158D040C556DF4FA883CB59D0404A2F3E
:102850004F716DE6F60184810E946A0A632DC601FC
:102860000E94F90DE12CF12C412C55245394E1E800
:102870006E2E712C6C0E7D1EF3E06F0E711CE81431
:10288000F90408F047C0C70140968816990638F445
:10289000C156DF4F2880CF59D0402E1802C060E1CA
:1028A000262E822D90E0920123193109281739072D
:1028B00014F4232C219493012E0D3F1D08EE13E0F8
:1028C000422D6FE6D60114968C910E947A0AE20C92
:1028D000F11C320CE814F90490F631100BC0C55607
:1028E000DF4FB881CB59D040BF5FC556DF4FB883AB
:1028F000CB59D040C556DF4F4881CB59D0404F719E
:102900006DE6F60184810E946A0A632DC6010E9469
:10291000F90DB5CFC6010E94160C83309105D0F396
:10292000482FBE016F5F7F4FC6010E94090CC60190
:102930000E94360CF501EF52FF4F80E09491A1E820
:10294000B0E0AC0FBD1FA80FB11D9C938F5F84300A
:1029500070F0CD57DF4F4881C358D04050E0BA01E6
:102960006E5F7F4F282F30E06217730714F03196A7
:10297000E5CF61E870E06C0F7D1F6D5F7F4FE12C4C
:10298000CE57DF4F0881C258D040CF57DF4F288144
:10299000C158D040C6010E94FF0D20E047E06AE622
:1029A000D60114968C910E94D60B8AE290E0F60133
:1029B00093838283C6010E942F0CC6010E94360CAD
:1029C00010E001C011E01093CF01D60114968C9154
:1029D0002CED30E0C756DF4F39832883C959D040EA
:1029E000AE0147565F4F63E10E94D50DF601848129
:1029F0002CE430E0C956DF4F39832883C759D040D3
:102A0000AE0149565F4F65E10E94D50DD60114967F
:102A10008C912BEA3FEFCB56DF4F39832883C55982
:102A2000D040AE014B565F4F67E10E94D50DF601D5
:102A300084812CEF36E0CD56DF4F39832883C3598C
:102A4000D040AE014D565F4F6AE00E94D50D111186
:102A500030C085ED99E00E94860D21E047E06AE6EE
:102A6000D60114968C910E94D60B86E999E00E94BB
:102A7000860D8BE597E09093010180930001809192
:102A80006900836080936900E89AC6010E94360C51
:102A9000809318028CE699E00E94860D81E0809375
:102AA0001902F6018281938190931502809314029A
:102AB0000FC08BE499E00E946B0D612F70E080E005
:102AC00090E04AE00E94940D89E499E00E94860D0E
:102AD000D0922702C09226028DE190E00E942C2223
:102AE0008C012090D0013090D101E090D201F09083
:102AF000D301DC0115961D921D921D921C92189710
:102B0000412C512C40E7642E42E4742EFC01418696
:102B1000528663867486812C912CA12C5FE3B52E9E
:102B20001D968D929D92AD92BC92509780E090E45C
:102B3000ACE1B5E4818B928BA38BB48B14821082B1
:102B4000118212821382D08EC78A8AE390E00E949B
:102B50002C226C01FC0114AA15AA16AA17AA148E1D
:102B6000158E168E178E10A211A212A213A2108E0D
:102B7000118E128E138E108211821282138244865D
:102B8000558666867786808A918AA28AB38A80E093
:102B900090E4ACE1B5E4848B958BA68BB78B80E099
:102BA00090E0A1E6B3E484839583A683B78380E0B5
:102BB00090E0A1E6B3EC80879187A287B3878AE093
:102BC00090E091AF80AF0E9467080E94791ED60105
:102BD000D0966D937D938D939C93D397F801D68A6D
:102BE000C58AF28EE18E348E238E10932B020093D1
:102BF0002A0280912C02811108C00E94670869385E
:102C000073418105910508F01CC684EE92E00E9494
:102C1000C405181619060CF0B9C1009128021091CC
:102C20002902E0908D03F0908E03E00EF11E84EEF9
:102C300092E00E94A205D7018C93E0918D03F09160
:102C40008E03E00FF11F80818A3009F098C1109245
:102C5000290210922802CF57DF4F19821882C158DB
:102C6000D040CD57DF4F19821882C358D040CB5780
:102C7000DF4F19821882C558D04060E070E0CE0165
:102C80008F579F4F0E9410101A8219821C821B823C
:102C90001E821D8260E070E0CE0101960E9410103D
:102CA00000E010E0E0918D03F0918E03E00FF11F42
:102CB00080810F5F1F4F8A3309F45DC08A3009F4A9
:102CC0005AC0CF56DF4F8883C159D040CE56DF4F10
:102CD0001882C259D040CB57DF4FE880F980C558E1
:102CE000D040BFEFEB1AFB0AB701CE018F579F4FC1
:102CF0000E9461078823B1F2CF57DF4F28813981C5
:102D0000C158D040CB57DF4F88819981C558D040FA
:102D1000BE016F567F4F820F931F0E943724CB57FF
:102D2000DF4FF982E882C558D040BCCFCF56DF4F85
:102D30008883C159D040CE56DF4F1882C259D04047
:102D4000ED80FE80EFEFEE1AFE0AB701CE0101968C
:102D50000E946107882369F029813A818D819E81D3
:102D6000BE016F567F4F820F931F0E943724FE8251
:102D7000ED820F5F1F4FE0918D03F0918E03E00F06
:102D8000F11F80818A3091F660E371E0CE018F57A8
:102D90009F4F0E94260F882311F189819A81009705
:102DA00029F00E94011D6B017C0103C0C12CD12CB4
:102DB0007601E0912A02F0912B02C586D686E7863D
:102DC000F08A0588F689E02DC08AD18AE28AF38AE2
:102DD000148E158E168E178E83E391E02AC06AE456
:102DE00071E0CE018F579F4F0E94260F882341F13B
:102DF00089819A81009729F00E94011D6B017C0155
:102E000003C0C12CD12C7601E0912A02F0912B0253
:102E1000C186D286E386F4860588F689E02DC486CD
:102E2000D586E686F786108E118E128E138E8DE46F
:102E300091E00E94590DC701B6010E94450F92C052
:102E400068E671E0CE018F579F4F0E94260F8823BE
:102E500011F189819A81009729F00E94011D6B016F
:102E60007C0103C0C12CD12C7601E0912A02F091A3
:102E70002B02C18AD28AE38AF48A0588F689E02D7A
:102E8000C48AD58AE68AF78A10A211A212A213A2D6
:102E90008BE691E0CECF64E871E0CE018F579F4F73
:102EA0000E94260F882309F100912A0210912B021B
:102EB00020E030E044E353E460911E0270911F0271
:102EC00080912002909121020E94DA1E2BED3FE0BA
:102ED00049E450E40E94CB20D8016D937D938D93FB
:102EE0009C93139787E891E03BC060EA71E0CE01C4
:102EF0008F579F4F0E94260F882369F0E0912A0286
:102F0000F0912B02B1E0B483858996890E944B0C25
:102F100083EA91E025C06CEA71E0CE018F579F4FA4
:102F20000E94260F8823F1F000912A0210912B02B3
:102F300060E0F801818D928D0E94760C60E0D801EE
:102F40005B968D919C915C970E94760CF801858927
:102F500096890E944B0CD80114961C928FEA91E03E
:102F60000E94180F89819A810E94C422CF57DF4F97
:102F700088819981C158D0400E94C42246CEC801A0
:102F8000019690932902809328023FCE80911902E6
:102F9000882309F445C2C0902602D09027021092DF
:102FA000CE01C6010E94360C182F80931802C6016C
:102FB0000E94160C909317028093160214FD03C012
:102FC0008115944041F4C6010E942F0C8DE19AE0D6
:102FD0000E94860D25C211FF23C200911602109196
:102FE0001702E0901402F09015020E151F0540F430
:102FF000C6010E94160C9093170280931602EDCF23
:103000004E2D64ED71E0C6010E94090C0E191F09D6
:1030100010931702009316028090D801912C982CDF
:1030200088248091D901880E911CA090DC01B12CDC
:10303000BA2CAA248091DD01A80EB11C0091E001F8
:1030400010E0102F00278091E101080F111D609101
:10305000D40170E0762F66278091D501680F711D2D
:10306000072E000C880B990B0E947B1E20E030E09D
:1030700040E858E30E94DA1E6B017C0160939B03D9
:1030800070939C0380939D0390939E03B401990CCD
:10309000880B990B0E947B1E20E030E040E858E34B
:1030A0000E94DA1E2B013C0160939F037093A003E2
:1030B0008093A1039093A203B501BB0C880B990BDD
:1030C0000E947B1E20E030E040E858E30E94DA1EB8
:1030D000C556DF4F688379838A839B83CB59D04061
:1030E0006093A3037093A4038093A5039093A60316
:1030F000B801110F880B990B0E947B1E20E030E075
:1031000040E858E30E94DA1EC156DF4F6883798396
:103110008A839B83CF59D0406093A7037093A80301
:103120008093A9039093AA039B01AC01C301B20150
:103130000E94DA1E4B015C01C556DF4F28813981A0
:103140004A815B81CB59D040C701B6010E94DA1E8B
:103150009B01AC01C501B4010E94EC1F9B01AC01B5
:103160000E94ED1FCD55DF4F688379838A839B834F
:10317000C35AD04060938F03709390038093910360
:1031800090939203A3019201C701B6010E94DA1E37
:103190004B015C01C156DF4F288139814A815B8137
:1031A000CF59D040C556DF4F688179818A819B8194
:1031B000CB59D0400E94DA1E9B01AC01C501B4017D
:1031C0000E94ED1F9B01AC010E94ED1FC955DF4F0E
:1031D000688379838A839B83C75AD0406093930323
:1031E000709394038093950390939603A70196019F
:1031F000C701B6010E94DA1E4B015C01A3019201D6
:10320000C301B2010E94DA1E9B01AC01C501B401E9
:103210000E94EC1F4B015C01C556DF4F28813981AC
:103220004A815B81CB59D040CA01B9010E94DA1EA4
:103230009B01AC01C501B4010E94EC1F4B015C0174
:10324000C156DF4F288139814A815B81CF59D040F7
:10325000CA01B9010E94DA1E9B01AC01C501B4018B
:103260000E94ED1F4B015C016093970370939803DC
:103270008093990390939A03A7019601C701B60121
:103280000E94ED1FC555DF4F688379838A839B8336
:10329000CB5AD040A3019201C301B2010E94ED1F9D
:1032A000C155DF4F688379838A839B83CF5AD0408F
:1032B000A7019601C555DF4F688179818A819B817D
:1032C000CB5AD0400E94DA1E6B017C01A30192010F
:1032D000C155DF4F688179818A819B81CF5AD04067
:1032E0000E94DA1E9B01AC01C701B6010E94ED1FCE
:1032F00020E030E040E85FE30E94EC1F6B017C01BE
:10330000C556DF4F288139814A815B81CB59D04036
:10331000C155DF4F688179818A819B81CF5AD04026
:103320000E94DA1E2B013C01C156DF4F28813981F2
:103330004A815B81CF59D040C555DF4F6881798183
:103340008A819B81CB5AD0400E94DA1E9B01AC013E
:10335000C301B2010E94EC1FA70196010E946C20DC
:1033600060931A0270931B0280931C0290931D02BB
:10337000A5019401C501B4010E94DA1E6B017C0114
:10338000C955DF4F288139814A815B81C75AD040B6
:10339000CA01B9010E94DA1EA70196010E94ED1F21
:1033A0000E94A6219B01AC01CD55DF4F6881798138
:1033B0008A819B81C35AD0400E94CB200E949C20CE
:1033C00060931E0270931F0280932002909321024B
:1033D000CD55DF4F288139814A815B81C35AD04066
:1033E000CA01B9010E94DA1EA70196010E94ED1FD1
:1033F0000E94A6219B01AC01C955DF4F68817981EC
:103400008A819B81C75AD0400E94CB200E949C2079
:1034100060932202709323028093240290932502EA
:1034200020902A0230902B02F1018481882309F434
:1034300005C280901E0290901F02A0902002B090C2
:103440002102C080D180E280F380058916890E9424
:1034500067080E94791ED801D0962D913D914D911B
:103460005C91D3970E94EC1F2B013C01F80160ADE9
:1034700071AD072E000C880B990B0E947B1E9B01DF
:10348000AC01C301B2010E94741E87FD6FC120E030
:1034900030E044E353E4C501B4010E94DA1E2BED91
:1034A0003FE049E450E40E94CB20A70196010E942E
:1034B000EC1F9B01AC01D8016D917D918D919C9188
:1034C0000E94EC1FC556DF4F688379838A839B83F4
:1034D000CB59D040F80164A375A386A397A3248594
:1034E0003585468557850E94DA1E4B015C01D8015F
:1034F00058966D937D938D939C935B9750962D91E9
:103500003D914D915C915397C556DF4F688179810C
:103510008A819B81CB59D0400E94DA1EA30192017F
:103520000E94DA1EF801248D358D468D578D0E943C
:10353000ED1FC156DF4F688379838A839B83CF5900
:10354000D040D8015C966D937D938D939C935F974B
:1035500098962D913D914D915C919B97C556DF4F6B
:10356000688179818A819B81CB59D0400E94EC1F70
:10357000A30192010E94CB20F80124893589468954
:1035800057890E94DA1ECD55DF4F688379838A837D
:103590009B83C35AD040D80190966D937D938D93B1
:1035A0009C939397C156DF4F288139814A815B8173
:1035B000CF59D040C501B4010E94ED1FCD55DF4F5A
:1035C000288139814A815B81C35AD0400E94ED1F16
:1035D0002B013C01F80164AB75AB86AB97ABC480A3
:1035E000D580E680F780A70196010E949321D8013B
:1035F00018163CF4D496CD92DD92ED92FC92D797BA
:1036000023C018968D919D910D90BC91A02DC95508
:10361000DF4F88839983AA83BB83C75AD0409C011C
:10362000AD01C301B2010E94741E87FF0DC0C955D0
:10363000DF4F88819981AA81BB81C75AD040F801A8
:1036400084AB95ABA6ABB7ABA7019601C501B4019E
:103650000E949321181644F4D8015896CD92DD9219
:10366000ED92FC925B9714C0F8014084518462840F
:103670007384A3019201C501B4010E94741E87FFE7
:1036800007C0D80158964D925D926D927C925B97DF
:10369000A7019601C156DF4F688179818A819B819C
:1036A000CF59D0400E949321181634F4F801C48EEB
:1036B000D58EE68EF78E1AC0D80118968D909D9003
:1036C000AD90BC901B97A5019401C156DF4F688156
:1036D00079818A819B81CF59D0400E94741E87FFD7
:1036E00005C0F801848E958EA68EB78EA70196012F
:1036F000CD55DF4F688179818A819B81C35AD04043
:103700000E94932118169CF0F801C084D184E284B1
:10371000F384A7019601CD55DF4F688179818A81B5
:103720009B81C35AD0400E94741E87FF07C0D801F6
:103730009096CD92DD92ED92FC929397C556DF4F15
:1037400088819981AA81BB81CB59D040F80180A79B
:1037500091A7A2A7B3A70E9467080E94791ED8016B
:10376000D0966D937D938D939C93D39720E030E01A
:1037700044E353E460911E0270911F028091200285
:10378000909121020E94DA1E2BED3FE049E450E4C3
:103790000E94CB206B017C0120E030E048EC51E43A
:1037A0000E94932118160CF475C020E030E048EC1C
:1037B00051ECC701B6010E94741E87FD6BC0D10198
:1037C0005596ED91FC915697C4A8D5A8E6A8F7A800
:1037D00020E030E0A901C701B6010E94932118162C
:1037E0000CF065C0F101818D928DDC0115961C9263
:1037F0001E9214970E94690C20E030E040EF51E4E3
:10380000C701B6010E94ED1F0E943D21162FF10154
:10381000818D928D0E94760CD1015B968D919C9149
:103820005C97FC01158214820E94690C612FD10102
:103830005B968D919C915C970E94760C0E946B0622
:10384000D8C900912A0210912B0220E030E044E315
:1038500053E460911E0270911F02809120029091AA
:1038600021020E94DA1E2BED3FE049E450E40E9461
:10387000CB20D8016D937D938D939C931397B1E0EA
:10388000B0932C0221E0F8012483858996890E9457
:103890004B0CBBC960E0D10159968D919C915A9710
:1038A0000E94760C60E0F101838D948DC5CF20E0FD
:1038B00030E0A901C701B6010E94741E87FFBECF88
:1038C000F101018D128DE1E0F0E0D8011596FC9335
:1038D000EE93149761E011968C910E94E00760E0EE
:1038E000D80112968C910E94E00720E030E040EF72
:1038F00051E4C701B6010E94EC1F90580E943D217F
:10390000F62EF101818D928D0E94760CD1015B968D
:103910000D911C915C9781E090E0F8019583848380
:1039200061E081810E94E00760E0D80112968C91ED
:103930000E94E0076F2DB7CFE4EEF2E0138212820F
:1039400088EE93E0A0E0B0E084839583A683B783FC
:1039500020E131E03183208325EC30E03587248776
:1039600024EC30E03787268720EC30E0318B208B49
:1039700021EC30E0338B228B22EC30E0358B248B32
:1039800026EC30E0378B268B118E128E138E148E20
:10399000E1E8F3E01382128284839583A683B783E0
:1039A00082E291E0918380838FE090E00E942C225C
:1039B00090938E0380938D03EBE9F3E080E090E039
:1039C000A0E8BFE380839183A283B383148215822E
:1039D0001682178210861186128613861486158623
:1039E00016861786EFE8F3E01082118212821382A6
:1039F000148215821682178210861186128613860B
:103A00000895662777270C94051DA0E0B0E0EBE051
:103A1000FDE10C94AC1FEC016B016115710519F00F
:103A2000FB01918380837E01FFEFEF1AFF0A08817B
:103A3000802F90E00E94531E892B11F0E701F3CFF5
:103A40000D3239F47E0182E0E80EF11C098111E0AB
:103A500008C00B3229F47E0192E0E90EF11C0981C5
:103A600010E0E701219743E050E06EE970E0CE01FD
:103A70000E945C1E892BC1F4239645E050E069E961
:103A800070E0CE010E945C1E892B09F42596C114BA
:103A9000D10419F0F601D183C0831111F6C060E0A2
:103AA00070E080E89FE7FAC043E050E066E970E02C
:103AB000CE010E945C1E892B59F4C114D10409F473
:103AC000E9C0F2E0EF0EF11CF601F182E082E2C003
:103AD00020E030E0A901C0E0D0E0F70180EDA82EA1
:103AE000A00E89E08A1530F1912F9260B92E812FB6
:103AF000887012FF04C0811124C0219622C0811158
:103B00002197A5E0B0E00E949B1FDC01CB01880F4C
:103B1000991FAA1FBB1F9C01AD012A0D311D411D1C
:103B2000511D283989E93807480789E1580748F0C5
:103B3000166006C09EEFA9120AC013FD40C01860AF
:103B4000B12E8FEFE81AF80A00811B2DC6CF802F07
:103B50008F7D8534A1F580818D3211F4106106C00E
:103B60008B3221F0319661E070E004C081813296A1
:103B700062E070E080538A3018F0E61BF70B1FC03C
:103B800060E070E060389CE079075CF4DB01AA0F2C
:103B9000BB1FAA0FBB1F6A0F7B1F660F771F680F23
:103BA000711D3196DF0111978C9180538A3050F34B
:103BB00014FF03C0719561957109C60FD71F11FFDE
:103BC00008C0C114D10429F0CF010197F6019183F7
:103BD0008083CA01B9010E94791E212F23702330EE
:103BE00019F04B015C0106C04B015C01B7FAB094BF
:103BF000B7F8B09420E030E0A901C501B4010E94FB
:103C0000741E882309F43EC0D7FF06C0D195C19524
:103C1000D10905EB10E002C00DEC10E06801F8E1FD
:103C2000CF1AD10890E2E92EF12CCE15DF0574F001
:103C3000F8012591359145915491C501B4010E9437
:103C4000DA1E4B015C01CE19DF09EFCF04501109D8
:103C5000F594E7940C151D0541F78A2D880F8B2DDF
:103C6000881F8F3F49F020E030E0A901C501B40171
:103C70000E94741E811106C082E290E09093AC0312
:103C80008093AB03C501B40109C060E070E080E837
:103C90009FEF04C060E070E080EC9FE7CDB7DEB737
:103CA000ECE00C94C81F91110C94471F803219F05E
:103CB00089508550C8F70895FB01DC014150504000
:103CC00088F08D9181341CF08B350CF4805E659109
:103CD00061341CF06B350CF4605E861B611171F36E
:103CE000990B0895881BFCCF0E94B61E08F481E052
:103CF0000895E89409C097FB3EF4909580957095DF
:103D000061957F4F8F4F9F4F9923A9F0F92F96E927
:103D1000BB279395F695879577956795B795F1119C
:103D2000F8CFFAF4BB0F11F460FF1BC06F5F7F4F39
:103D30008F4F9F4F16C0882311F096E911C077234B
:103D400021F09EE8872F762F05C0662371F096E854
:103D5000862F70E060E02AF09A95660F771F881F23
:103D6000DAF7880F9695879597F90895990F0008C7
:103D7000550FAA0BE0E8FEEF16161706E807F9073D
:103D8000C0F012161306E407F50798F0621B730BD8
:103D9000840B950B39F40A2661F0232B242B252B59
:103DA00021F408950A2609F4A140A6958FEF811DFC
:103DB000811D08950E94ED1E0C94611F0E94531FE7
:103DC00038F00E945A1F20F0952311F00C944A1FDE
:103DD0000C94501F11240C94951F0E94721F70F3B5
:103DE000959FC1F3950F50E0551F629FF001729FA0
:103DF000BB27F00DB11D639FAA27F00DB11DAA1FAF
:103E0000649F6627B00DA11D661F829F2227B00DFB
:103E1000A11D621F739FB00DA11D621F839FA00D86
:103E2000611D221F749F3327A00D611D231F849FD6
:103E3000600D211D822F762F6A2F11249F5750402D
:103E40009AF0F1F088234AF0EE0FFF1FBB1F661FA8
:103E5000771F881F91505040A9F79E3F510580F071
:103E60000C944A1F0C94951F5F3FE4F3983ED4F3E3
:103E7000869577956795B795F795E7959F5FC1F715
:103E8000FE2B880F911D9695879597F90895992790
:103E90008827089597F99F6780E870E060E00895AB
:103EA0009FEF80EC089500240A9416161706180652
:103EB0000906089500240A9412161306140605062E
:103EC0000895092E0394000C11F4882352F0BB0FBF
:103ED00040F4BF2B11F460FF04C06F5F7F4F8F4F22
:103EE0009F4F089557FD9058440F551F59F05F3F5D
:103EF00071F04795880F97FB991F61F09F3F79F00C
:103F000087950895121613061406551FF2CF46958D
:103F1000F1DF08C0161617061806991FF1CF86950F
:103F20007105610508940895E894BB2766277727F3
:103F3000CB0197F908950E94DD1FA59F900DB49FB6
:103F4000900DA49F800D911D112408952F923F92F2
:103F50004F925F926F927F928F929F92AF92BF9299
:103F6000CF92DF92EF92FF920F931F93CF93DF9345
:103F7000CDB7DEB7CA1BDB0B0FB6F894DEBF0FBEA2
:103F8000CDBF09942A88398848885F846E847D84EF
:103F90008C849B84AA84B984C884DF80EE80FD80F1
:103FA0000C811B81AA81B981CE0FD11D0FB6F89467
:103FB000DEBF0FBECDBFED010895A29FB001B39F3C
:103FC000C001A39F700D811D1124911DB29F700D22
:103FD000811D1124911D08955058BB27AA270E94C6
:103FE00004200C94611F0E94531F38F00E945A1F36
:103FF00020F039F49F3F19F426F40C94501F0EF46E
:10400000E095E7FB0C944A1FE92F0E94721F58F3BA
:10401000BA17620773078407950720F079F4A6F5AD
:104020000C94941F0EF4E0950B2EBA2FA02D0B01CB
:10403000B90190010C01CA01A0011124FF27591BED
:1040400099F0593F50F4503E68F11A16F040A22FF3
:10405000232F342F4427585FF3CF46953795279564
:10406000A795F0405395C9F77EF41F16BA0B620B63
:10407000730B840BBAF09150A1F0FF0FBB1F661FAA
:10408000771F881FC2F70EC0BA0F621F731F841FED
:1040900048F4879577956795B795F7959E3F08F013
:1040A000B0CF9395880F08F09927EE0F97958795D5
:1040B00008950E94531F60F080E891E009F49EEF9C
:1040C0000E945A1F28F040E851E071F45EEF0CC0E6
:1040D0000C94501F0C94941FE92FE0780E94721FDB
:1040E00040F3092E052AB1F3261737074807590769
:1040F00038F00E2E07F8E02569F0E025E0640AC0EC
:10410000EF6307F8009407FADB01B9019D01DC01B8
:10411000CA01AD01EF930E94E2200E94611F0E943C
:104120009C205F91552339F02BED3FE049E450FD91
:1041300049EC0C94ED1F0895DF93DD27B92FBF776D
:1041400040E85FE31616170648075B0718F4D92FF7
:104150000E9498219F938F937F936F930E94E621F3
:10416000E8E6F0E00E946C210E94611F2F913F91D0
:104170004F915F910E94ED1EDD2351F09058A2EA0D
:104180002AED3FE049EC5FE3D0785D270E940420F0
:10419000DF910C94611F0E94DF200C94611F0E942C
:1041A0005A1F58F00E94531F40F029F45F3F29F036
:1041B0000C944A1F51110C94951F0C94501F0E948F
:1041C000721F68F39923B1F3552391F3951B550B97
:1041D000BB27AA2762177307840738F09F5F5F4FDA
:1041E000220F331F441FAA1FA9F335D00E2E3AF019
:1041F000E0E832D091505040E695001CCAF72BD031
:10420000FE2F29D0660F771F881FBB1F2617370781
:104210004807AB07B0E809F0BB0B802DBF01FF27B3
:1042200093585F4F3AF09E3F510578F00C944A1F27
:104230000C94951F5F3FE4F3983ED4F386957795F1
:104240006795B795F7959F5FC9F7880F911D96956C
:10425000879597F90895E1E0660F771F881FBB1FC8
:10426000621773078407BA0720F0621B730B840B75
:10427000BA0BEE1F88F7E09508950E947A1F88F028
:104280009F5798F0B92F9927B751B0F0E1F0660F1A
:10429000771F881F991F1AF0BA95C9F714C0B1305B
:1042A00091F00E94941FB1E008950C94941F672F21
:1042B000782F8827B85F39F0B93FCCF3869577958A
:1042C0006795B395D9F73EF4909580957095619573
:1042D0007F4F8F4F9F4F0895DF93CF931F930F937F
:1042E000FF92EF92DF927B018C01689406C0DA2E78
:1042F000EF010E94ED1EFE01E894A59125913591F4
:1043000045915591A6F3EF010E940420FE0197010B
:10431000A801DA9469F7DF90EF90FF900F911F9159
:10432000CF91DF9108950E94B61E08F48FEF089593
:104330009B01AC0160E070E080E89FE30C94CB202F
:1043400019F416F40C94501F0C94EF210E947A1F5C
:10435000B8F39923C9F3B6F39F57550B87FF0E9413
:10436000FD210024A0E640EA9001805856959795DB
:1043700028F4805C660F771F881F20F02617370708
:10438000480730F4621B730B840B202931294A2B18
:10439000A69517940794202531254A2758F7660FCC
:1043A000771F881F20F026173707480730F4620B65
:1043B000730B840B200D311D411DA09581F7B901B0
:1043C000842F9158880F9695879508959B01AC018D
:1043D0000C94DA1E0E94B61E880B990B08959F3F1D
:1043E00031F0915020F4879577956795B795880FB0
:1043F000911D9695879597F9089591505040660FB5
:10440000771F881FD2F70895A1E21A2EAA1BBB1BA3
:10441000FD010DC0AA1FBB1FEE1FFF1FA217B30790
:10442000E407F50720F0A21BB30BE40BF50B661FA6
:10443000771F881F991F1A9469F76095709580956A
:1044400090959B01AC01BD01CF010895EE0FFF1FB8
:104450000590F491E02D09940F931F93CF93DF9370
:104460008230910510F482E090E0E091AF03F0918A
:10447000B00320E030E0A0E0B0E0309719F14081D7
:1044800051810281138148175907C8F08417950795
:1044900069F4109731F012960C93129713961C93AF
:1044A00027C00093AF031093B00322C0211531053C
:1044B00019F04217530718F49A01BD01EF01DF010B
:1044C000F801DBCF21153105F9F0281B390B243019
:1044D000310580F48A819B816115710521F0FB0112
:1044E0009383828304C09093B0038093AF03FE0153
:1044F000329644C0FE01E20FF31F81939193225044
:104500003109398328833AC02091AD033091AE033D
:10451000232B41F420910601309107013093AE0323
:104520002093AD032091040130910501211531053F
:1045300041F42DB73EB74091080150910901241B69
:10454000350BE091AD03F091AE03E217F307A0F451
:104550002E1B3F0B2817390778F0AC014E5F5F4FD9
:104560002417350748F04E0F5F1F5093AE0340935A
:10457000AD038193919302C0E0E0F0E0CF01DF91C1
:10458000CF911F910F910895CF93DF93009709F476
:1045900081C0FC01329713821282A091AF03B091C7
:1045A000B003109781F420813181820F931F2091F5
:1045B000AD033091AE032817390751F5F093AE03E0
:1045C000E093AD0367C0ED0120E030E0CE17DF07D8
:1045D00040F44A815B819E0141155105F1F0EA01E9
:1045E000F5CFD383C28340815181840F951FC817B3
:1045F000D90759F488819981840F951F0296918378
:1046000080838A819B81938382832115310529F4DC
:10461000F093B003E093AF033DC0E901FB83EA836D
:1046200049915991C40FD51FEC17FD0761F48081A2
:104630009181840F951F0296E90199838883828175
:1046400093819B838A83E0E0F0E012968D919C91A8
:104650001397009719F0FD01DC01F7CF8D919C9124
:1046600011979D012E5F3F4F820F931F2091AD0345
:104670003091AE032817390769F4309729F4109266
:10468000B0031092AF0302C013821282B093AE0344
:10469000A093AD03DF91CF910895A0E0B0E0E3E5F2
:1046A000F3E20C94AA1FEC01009721F4CB010E94C5
:1046B0002C22B4C0FC01E60FF71F9C0122503109E7
:1046C000E217F30708F4A8C0D9010D911C911197C6
:1046D00006171707B0F00530110508F49BC0C80194
:1046E00004978617970708F495C002501109061B16
:1046F000170B019311936D937C93CF010E94C422F9
:1047000089C05B01A01AB10A4C01800E911EA091D4
:10471000AF03B091B003612C712CE12CF12C1097F8
:1047200009F446C08D919C911197A815B905B1F572
:104730006C0142E0C40ED11CCA14DB0478F14C01B8
:104740008A189B08640142E0C40ED11C1296BC90EA
:1047500012971396AC91B5E0CB16D10440F0B2821B
:10476000A38391828082D9016D937C9309C00E5FEF
:104770001F4F800F911FF90191838083EB2DFA2F3A
:10478000E114F10431F0D7011396FC93EE931297E4
:1047900041C0F093B003E093AF033CC068167906C4
:1047A00008F43C017D0112960D90BC91A02DB7CF6D
:1047B0008091AD039091AE0388169906E1F46616D8
:1047C0007706C8F48091040190910501009741F4A7
:1047D0008DB79EB74091080150910901841B950B3C
:1047E000E817F907C8F4F093AE03E093AD03F901BD
:1047F000718360830FC0CB010E942C227C01009743
:1048000059F0A801BE010E942524CE010E94C422B5
:10481000C70104C0CE0102C080E090E0CDB7DEB792
:10482000EEE00C94C61F81E090E0F8940C943E24D6
:10483000FB01DC0104C08D910190801921F44150ED
:104840005040C8F7881B990B0895FB01DC0102C09A
:1048500001900D9241505040D8F70895FB01DC01C2
:104860008D91019080190110D9F3990B0895FB01E6
:10487000DC0101900D920020E1F70895F894FFCF3C
:104880009A069A060000B1038000E80300000000C9
:10489000FC05690593054906C405A205B605000097
:1048A00000002807FB065807CF06F306DF06D006F0
:1048B00050490053657474696E672050494420491B
:1048C0006E74656772616C3A2000505000536574D5
:1048D00074696E67205049442050726F706F727413
:1048E000696F6E616C3A20005044005365747469BE
:1048F0006E67205049442044657269766174697618
:10490000653A20005A500053657474696E67207AC6
:1049100065726F20706974636820616E676C6500F2
:104920005354005374617274696E6700535000539E
:10493000746F7070696E67000D0A006E616E0069B9
:084940006E66006F7666000050
:00000001FF
